{
  "_format": "hh-sol-artifact-1",
  "contractName": "FundingPool",
  "sourceName": "contracts/FundingPool.sol",
  "abi": [
    {
      "inputs": [
        {
          "internalType": "string",
          "name": "_ipId",
          "type": "string"
        },
        {
          "internalType": "uint256",
          "name": "_royaltyPercent",
          "type": "uint256"
        },
        {
          "internalType": "uint256",
          "name": "_priceEth",
          "type": "uint256"
        },
        {
          "internalType": "uint256",
          "name": "_goalAmountEth",
          "type": "uint256"
        },
        {
          "internalType": "string",
          "name": "_metadataURI",
          "type": "string"
        },
        {
          "internalType": "address[]",
          "name": "_recipients",
          "type": "address[]"
        },
        {
          "internalType": "uint256[]",
          "name": "_ratios",
          "type": "uint256[]"
        }
      ],
      "stateMutability": "nonpayable",
      "type": "constructor"
    },
    {
      "anonymous": false,
      "inputs": [
        {
          "indexed": true,
          "internalType": "address",
          "name": "buyer",
          "type": "address"
        },
        {
          "indexed": false,
          "internalType": "uint256",
          "name": "ethAmount",
          "type": "uint256"
        }
      ],
      "name": "Funded",
      "type": "event"
    },
    {
      "anonymous": false,
      "inputs": [
        {
          "indexed": false,
          "internalType": "uint256",
          "name": "totalEthFunded",
          "type": "uint256"
        }
      ],
      "name": "FundingFailed",
      "type": "event"
    },
    {
      "anonymous": false,
      "inputs": [
        {
          "indexed": false,
          "internalType": "uint256",
          "name": "totalEthFunded",
          "type": "uint256"
        }
      ],
      "name": "FundingSuccess",
      "type": "event"
    },
    {
      "inputs": [],
      "name": "failed",
      "outputs": [
        {
          "internalType": "bool",
          "name": "",
          "type": "bool"
        }
      ],
      "stateMutability": "view",
      "type": "function"
    },
    {
      "inputs": [],
      "name": "fund",
      "outputs": [],
      "stateMutability": "payable",
      "type": "function"
    },
    {
      "inputs": [],
      "name": "goalAmountEth",
      "outputs": [
        {
          "internalType": "uint256",
          "name": "",
          "type": "uint256"
        }
      ],
      "stateMutability": "view",
      "type": "function"
    },
    {
      "inputs": [],
      "name": "ipId",
      "outputs": [
        {
          "internalType": "string",
          "name": "",
          "type": "string"
        }
      ],
      "stateMutability": "view",
      "type": "function"
    },
    {
      "inputs": [],
      "name": "metadataURI",
      "outputs": [
        {
          "internalType": "string",
          "name": "",
          "type": "string"
        }
      ],
      "stateMutability": "view",
      "type": "function"
    },
    {
      "inputs": [],
      "name": "owner",
      "outputs": [
        {
          "internalType": "address",
          "name": "",
          "type": "address"
        }
      ],
      "stateMutability": "view",
      "type": "function"
    },
    {
      "inputs": [],
      "name": "priceEth",
      "outputs": [
        {
          "internalType": "uint256",
          "name": "",
          "type": "uint256"
        }
      ],
      "stateMutability": "view",
      "type": "function"
    },
    {
      "inputs": [
        {
          "internalType": "uint256",
          "name": "",
          "type": "uint256"
        }
      ],
      "name": "ratios",
      "outputs": [
        {
          "internalType": "uint256",
          "name": "",
          "type": "uint256"
        }
      ],
      "stateMutability": "view",
      "type": "function"
    },
    {
      "inputs": [
        {
          "internalType": "uint256",
          "name": "",
          "type": "uint256"
        }
      ],
      "name": "recipients",
      "outputs": [
        {
          "internalType": "address",
          "name": "",
          "type": "address"
        }
      ],
      "stateMutability": "view",
      "type": "function"
    },
    {
      "inputs": [],
      "name": "royaltyPercent",
      "outputs": [
        {
          "internalType": "uint256",
          "name": "",
          "type": "uint256"
        }
      ],
      "stateMutability": "view",
      "type": "function"
    },
    {
      "inputs": [],
      "name": "settle",
      "outputs": [],
      "stateMutability": "nonpayable",
      "type": "function"
    },
    {
      "inputs": [],
      "name": "settled",
      "outputs": [
        {
          "internalType": "bool",
          "name": "",
          "type": "bool"
        }
      ],
      "stateMutability": "view",
      "type": "function"
    },
    {
      "inputs": [],
      "name": "totalEthFunded",
      "outputs": [
        {
          "internalType": "uint256",
          "name": "",
          "type": "uint256"
        }
      ],
      "stateMutability": "view",
      "type": "function"
    },
    {
      "stateMutability": "payable",
      "type": "receive"
    }
  ],
  "bytecode": "0x608060405234801561001057600080fd5b5060405161189938038061189983398181016040528101906100329190610638565b8051825114610076576040517f08c379a000000000000000000000000000000000000000000000000000000000815260040161006d906107a7565b60405180910390fd5b600080600090505b82518110156100bc5782818151811061009a576100996107c7565b5b6020026020010151826100ad9190610825565b9150808060010191505061007e565b5060648114610100576040517f08c379a00000000000000000000000000000000000000000000000000000000081526004016100f7906108a5565b60405180910390fd5b336000806101000a81548173ffffffffffffffffffffffffffffffffffffffff021916908373ffffffffffffffffffffffffffffffffffffffff160217905550876001908161014f9190610adc565b5086600281905550856003819055508460048190555083600590816101749190610adc565b50826008908051906020019061018b9291906101b0565b5081600990805190602001906101a292919061023a565b505050505050505050610bae565b828054828255906000526020600020908101928215610229579160200282015b828111156102285782518260006101000a81548173ffffffffffffffffffffffffffffffffffffffff021916908373ffffffffffffffffffffffffffffffffffffffff160217905550916020019190600101906101d0565b5b5090506102369190610287565b5090565b828054828255906000526020600020908101928215610276579160200282015b8281111561027557825182559160200191906001019061025a565b5b5090506102839190610287565b5090565b5b808211156102a0576000816000905550600101610288565b5090565b6000604051905090565b600080fd5b600080fd5b600080fd5b600080fd5b6000601f19601f8301169050919050565b7f4e487b7100000000000000000000000000000000000000000000000000000000600052604160045260246000fd5b61030b826102c2565b810181811067ffffffffffffffff8211171561032a576103296102d3565b5b80604052505050565b600061033d6102a4565b90506103498282610302565b919050565b600067ffffffffffffffff821115610369576103686102d3565b5b610372826102c2565b9050602081019050919050565b60005b8381101561039d578082015181840152602081019050610382565b60008484015250505050565b60006103bc6103b78461034e565b610333565b9050828152602081018484840111156103d8576103d76102bd565b5b6103e384828561037f565b509392505050565b600082601f830112610400576103ff6102b8565b5b81516104108482602086016103a9565b91505092915050565b6000819050919050565b61042c81610419565b811461043757600080fd5b50565b60008151905061044981610423565b92915050565b600067ffffffffffffffff82111561046a576104696102d3565b5b602082029050602081019050919050565b600080fd5b600073ffffffffffffffffffffffffffffffffffffffff82169050919050565b60006104ab82610480565b9050919050565b6104bb816104a0565b81146104c657600080fd5b50565b6000815190506104d8816104b2565b92915050565b60006104f16104ec8461044f565b610333565b905080838252602082019050602084028301858111156105145761051361047b565b5b835b8181101561053d578061052988826104c9565b845260208401935050602081019050610516565b5050509392505050565b600082601f83011261055c5761055b6102b8565b5b815161056c8482602086016104de565b91505092915050565b600067ffffffffffffffff8211156105905761058f6102d3565b5b602082029050602081019050919050565b60006105b46105af84610575565b610333565b905080838252602082019050602084028301858111156105d7576105d661047b565b5b835b8181101561060057806105ec888261043a565b8452602084019350506020810190506105d9565b5050509392505050565b600082601f83011261061f5761061e6102b8565b5b815161062f8482602086016105a1565b91505092915050565b600080600080600080600060e0888a031215610657576106566102ae565b5b600088015167ffffffffffffffff811115610675576106746102b3565b5b6106818a828b016103eb565b97505060206106928a828b0161043a565b96505060406106a38a828b0161043a565b95505060606106b48a828b0161043a565b945050608088015167ffffffffffffffff8111156106d5576106d46102b3565b5b6106e18a828b016103eb565b93505060a088015167ffffffffffffffff811115610702576107016102b3565b5b61070e8a828b01610547565b92505060c088015167ffffffffffffffff81111561072f5761072e6102b3565b5b61073b8a828b0161060a565b91505092959891949750929550565b600082825260208201905092915050565b7f4d69736d61746368656420726174696f73000000000000000000000000000000600082015250565b600061079160118361074a565b915061079c8261075b565b602082019050919050565b600060208201905081810360008301526107c081610784565b9050919050565b7f4e487b7100000000000000000000000000000000000000000000000000000000600052603260045260246000fd5b7f4e487b7100000000000000000000000000000000000000000000000000000000600052601160045260246000fd5b600061083082610419565b915061083b83610419565b9250828201905080821115610853576108526107f6565b5b92915050565b7f526174696f73206d75737420746f74616c203130300000000000000000000000600082015250565b600061088f60158361074a565b915061089a82610859565b602082019050919050565b600060208201905081810360008301526108be81610882565b9050919050565b600081519050919050565b7f4e487b7100000000000000000000000000000000000000000000000000000000600052602260045260246000fd5b6000600282049050600182168061091757607f821691505b60208210810361092a576109296108d0565b5b50919050565b60008190508160005260206000209050919050565b60006020601f8301049050919050565b600082821b905092915050565b6000600883026109927fffffffffffffffffffffffffffffffffffffffffffffffffffffffffffffffff82610955565b61099c8683610955565b95508019841693508086168417925050509392505050565b6000819050919050565b60006109d96109d46109cf84610419565b6109b4565b610419565b9050919050565b6000819050919050565b6109f3836109be565b610a076109ff826109e0565b848454610962565b825550505050565b600090565b610a1c610a0f565b610a278184846109ea565b505050565b5b81811015610a4b57610a40600082610a14565b600181019050610a2d565b5050565b601f821115610a9057610a6181610930565b610a6a84610945565b81016020851015610a79578190505b610a8d610a8585610945565b830182610a2c565b50505b505050565b600082821c905092915050565b6000610ab360001984600802610a95565b1980831691505092915050565b6000610acc8383610aa2565b9150826002028217905092915050565b610ae5826108c5565b67ffffffffffffffff811115610afe57610afd6102d3565b5b610b0882546108ff565b610b13828285610a4f565b600060209050601f831160018114610b465760008415610b34578287015190505b610b3e8582610ac0565b865550610ba6565b601f198416610b5486610930565b60005b82811015610b7c57848901518255600182019150602085019450602081019050610b57565b86831015610b995784890151610b95601f891682610aa2565b8355505b6001600288020188555050505b505050505050565b610cdc80610bbd6000396000f3fe6080604052600436106100c65760003560e01c80638da5cb5b1161007f578063b60d428811610059578063b60d42881461025b578063ba414fa614610265578063d1bc76a114610290578063e1b5fef8146102cd576100d5565b80638da5cb5b146101da5780638f775839146102055780639f67756d14610230576100d5565b806303ee438c146100da57806311da60b4146101055780631937dfc81461011c5780632ca3836314610147578063771dc86a146101725780637dbb35e0146101af576100d5565b366100d5576100d36102f8565b005b600080fd5b3480156100e657600080fd5b506100ef61040f565b6040516100fc9190610888565b60405180910390f35b34801561011157600080fd5b5061011a61049d565b005b34801561012857600080fd5b506101316106a5565b60405161013e9190610888565b60405180910390f35b34801561015357600080fd5b5061015c610733565b60405161016991906108c3565b60405180910390f35b34801561017e57600080fd5b506101996004803603810190610194919061090f565b610739565b6040516101a691906108c3565b60405180910390f35b3480156101bb57600080fd5b506101c461075d565b6040516101d191906108c3565b60405180910390f35b3480156101e657600080fd5b506101ef610763565b6040516101fc919061097d565b60405180910390f35b34801561021157600080fd5b5061021a610787565b60405161022791906109b3565b60405180910390f35b34801561023c57600080fd5b5061024561079a565b60405161025291906108c3565b60405180910390f35b6102636102f8565b005b34801561027157600080fd5b5061027a6107a0565b60405161028791906109b3565b60405180910390f35b34801561029c57600080fd5b506102b760048036038101906102b2919061090f565b6107b3565b6040516102c4919061097d565b60405180910390f35b3480156102d957600080fd5b506102e26107f2565b6040516102ef91906108c3565b60405180910390f35b600760009054906101000a900460ff161580156103225750600760019054906101000a900460ff16155b610361576040517f08c379a000000000000000000000000000000000000000000000000000000000815260040161035890610a1a565b60405180910390fd5b6003543410156103a6576040517f08c379a000000000000000000000000000000000000000000000000000000000815260040161039d90610a86565b60405180910390fd5b34600660008282546103b89190610ad5565b925050819055503373ffffffffffffffffffffffffffffffffffffffff167f5af8184bef8e4b45eb9f6ed7734d04da38ced226495548f46e0c8ff8d7d9a5243460405161040591906108c3565b60405180910390a2565b6005805461041c90610b38565b80601f016020809104026020016040519081016040528092919081815260200182805461044890610b38565b80156104955780601f1061046a57610100808354040283529160200191610495565b820191906000526020600020905b81548152906001019060200180831161047857829003601f168201915b505050505081565b600760009054906101000a900460ff161580156104c75750600760019054906101000a900460ff16155b610506576040517f08c379a00000000000000000000000000000000000000000000000000000000081526004016104fd90610bb5565b60405180910390fd5b6004546006541061064e57600047905060005b6008805490508110156105f357600060646009838154811061053e5761053d610bd5565b5b9060005260206000200154846105549190610c04565b61055e9190610c75565b90506008828154811061057457610573610bd5565b5b9060005260206000200160009054906101000a900473ffffffffffffffffffffffffffffffffffffffff1673ffffffffffffffffffffffffffffffffffffffff166108fc829081150290604051600060405180830381858888f193505050501580156105e4573d6000803e3d6000fd5b50508080600101915050610519565b506001600760006101000a81548160ff0219169083151502179055507f25f07f291cafc33ddcad2dedb2665885a877fc8eaa73fc1031b3c46eb443cb0260065460405161064091906108c3565b60405180910390a1506106a3565b6001600760016101000a81548160ff0219169083151502179055507fe9981212ab524b2711193a45899a72ea24566f65d0953cd9f50c0d7943401c8260065460405161069a91906108c3565b60405180910390a15b565b600180546106b290610b38565b80601f01602080910402602001604051908101604052809291908181526020018280546106de90610b38565b801561072b5780601f106107005761010080835404028352916020019161072b565b820191906000526020600020905b81548152906001019060200180831161070e57829003601f168201915b505050505081565b60035481565b6009818154811061074957600080fd5b906000526020600020016000915090505481565b60045481565b60008054906101000a900473ffffffffffffffffffffffffffffffffffffffff1681565b600760009054906101000a900460ff1681565b60025481565b600760019054906101000a900460ff1681565b600881815481106107c357600080fd5b906000526020600020016000915054906101000a900473ffffffffffffffffffffffffffffffffffffffff1681565b60065481565b600081519050919050565b600082825260208201905092915050565b60005b83811015610832578082015181840152602081019050610817565b60008484015250505050565b6000601f19601f8301169050919050565b600061085a826107f8565b6108648185610803565b9350610874818560208601610814565b61087d8161083e565b840191505092915050565b600060208201905081810360008301526108a2818461084f565b905092915050565b6000819050919050565b6108bd816108aa565b82525050565b60006020820190506108d860008301846108b4565b92915050565b600080fd5b6108ec816108aa565b81146108f757600080fd5b50565b600081359050610909816108e3565b92915050565b600060208284031215610925576109246108de565b5b6000610933848285016108fa565b91505092915050565b600073ffffffffffffffffffffffffffffffffffffffff82169050919050565b60006109678261093c565b9050919050565b6109778161095c565b82525050565b6000602082019050610992600083018461096e565b92915050565b60008115159050919050565b6109ad81610998565b82525050565b60006020820190506109c860008301846109a4565b92915050565b7f46756e64696e6720636c6f736564000000000000000000000000000000000000600082015250565b6000610a04600e83610803565b9150610a0f826109ce565b602082019050919050565b60006020820190508181036000830152610a33816109f7565b9050919050565b7f496e73756666696369656e742045544800000000000000000000000000000000600082015250565b6000610a70601083610803565b9150610a7b82610a3a565b602082019050919050565b60006020820190508181036000830152610a9f81610a63565b9050919050565b7f4e487b7100000000000000000000000000000000000000000000000000000000600052601160045260246000fd5b6000610ae0826108aa565b9150610aeb836108aa565b9250828201905080821115610b0357610b02610aa6565b5b92915050565b7f4e487b7100000000000000000000000000000000000000000000000000000000600052602260045260246000fd5b60006002820490506001821680610b5057607f821691505b602082108103610b6357610b62610b09565b5b50919050565b7f416c72656164792070726f636573736564000000000000000000000000000000600082015250565b6000610b9f601183610803565b9150610baa82610b69565b602082019050919050565b60006020820190508181036000830152610bce81610b92565b9050919050565b7f4e487b7100000000000000000000000000000000000000000000000000000000600052603260045260246000fd5b6000610c0f826108aa565b9150610c1a836108aa565b9250828202610c28816108aa565b91508282048414831517610c3f57610c3e610aa6565b5b5092915050565b7f4e487b7100000000000000000000000000000000000000000000000000000000600052601260045260246000fd5b6000610c80826108aa565b9150610c8b836108aa565b925082610c9b57610c9a610c46565b5b82820490509291505056fea2646970667358221220913e8e248271b9df9e53ede836c0ac3fac834cf98fccbd789d84002e4d140c1764736f6c634300081c0033",
  "linkReferences": {},
  "deployedLinkReferences": {}
}