{
  "_format": "hh-sol-artifact-1",
  "contractName": "FundingRegistry",
  "sourceName": "contracts/FundingRegistry.sol",
  "abi": [
    {
      "anonymous": false,
      "inputs": [
        {
          "indexed": false,
          "internalType": "address",
          "name": "pool",
          "type": "address"
        },
        {
          "indexed": false,
          "internalType": "string",
          "name": "ipId",
          "type": "string"
        }
      ],
      "name": "FundingPoolCreated",
      "type": "event"
    },
    {
      "inputs": [
        {
          "internalType": "uint256",
          "name": "",
          "type": "uint256"
        }
      ],
      "name": "allPools",
      "outputs": [
        {
          "internalType": "address",
          "name": "",
          "type": "address"
        }
      ],
      "stateMutability": "view",
      "type": "function"
    },
    {
      "inputs": [
        {
          "internalType": "string",
          "name": "_ipId",
          "type": "string"
        },
        {
          "internalType": "uint256",
          "name": "_royaltyPercent",
          "type": "uint256"
        },
        {
          "internalType": "uint256",
          "name": "_priceEth",
          "type": "uint256"
        },
        {
          "internalType": "uint256",
          "name": "_goalAmountEth",
          "type": "uint256"
        },
        {
          "internalType": "string",
          "name": "_metadataURI",
          "type": "string"
        },
        {
          "internalType": "address[]",
          "name": "_recipients",
          "type": "address[]"
        },
        {
          "internalType": "uint256[]",
          "name": "_ratios",
          "type": "uint256[]"
        }
      ],
      "name": "createFundingPool",
      "outputs": [
        {
          "internalType": "address",
          "name": "",
          "type": "address"
        }
      ],
      "stateMutability": "nonpayable",
      "type": "function"
    },
    {
      "inputs": [],
      "name": "getAllFundingPools",
      "outputs": [
        {
          "internalType": "address[]",
          "name": "",
          "type": "address[]"
        }
      ],
      "stateMutability": "view",
      "type": "function"
    },
    {
      "inputs": [
        {
          "internalType": "string",
          "name": "_ipId",
          "type": "string"
        }
      ],
      "name": "getPoolsByIpId",
      "outputs": [
        {
          "internalType": "address[]",
          "name": "",
          "type": "address[]"
        }
      ],
      "stateMutability": "view",
      "type": "function"
    },
    {
      "inputs": [
        {
          "internalType": "string",
          "name": "",
          "type": "string"
        },
        {
          "internalType": "uint256",
          "name": "",
          "type": "uint256"
        }
      ],
      "name": "poolsByIpId",
      "outputs": [
        {
          "internalType": "address",
          "name": "",
          "type": "address"
        }
      ],
      "stateMutability": "view",
      "type": "function"
    }
  ],
  "bytecode": "0x6080604052348015600f57600080fd5b506126238061001f6000396000f3fe608060405234801561001057600080fd5b50600436106100575760003560e01c80632aed9a481461005c57806341cea8d91461007a57806341d1de97146100aa57806364fb7e32146100da5780638ed194361461010a575b600080fd5b61006461013a565b6040516100719190610583565b60405180910390f35b610094600480360381019061008f91906106ff565b6101c8565b6040516100a19190610583565b60405180910390f35b6100c460048036038101906100bf919061077e565b610274565b6040516100d191906107ba565b60405180910390f35b6100f460048036038101906100ef91906107d5565b6102b3565b60405161010191906107ba565b60405180910390f35b610124600480360381019061011f91906109e8565b610317565b60405161013191906107ba565b60405180910390f35b606060008054806020026020016040519081016040528092919081815260200182805480156101be57602002820191906000526020600020905b8160009054906101000a900473ffffffffffffffffffffffffffffffffffffffff1673ffffffffffffffffffffffffffffffffffffffff1681526020019060010190808311610174575b5050505050905090565b60606001826040516101da9190610b6b565b908152602001604051809103902080548060200260200160405190810160405280929190818152602001828054801561026857602002820191906000526020600020905b8160009054906101000a900473ffffffffffffffffffffffffffffffffffffffff1673ffffffffffffffffffffffffffffffffffffffff168152602001906001019080831161021e575b50505050509050919050565b6000818154811061028457600080fd5b906000526020600020016000915054906101000a900473ffffffffffffffffffffffffffffffffffffffff1681565b60018280516020810182018051848252602083016020850120818352809550505050505081815481106102e557600080fd5b906000526020600020016000915091509054906101000a900473ffffffffffffffffffffffffffffffffffffffff1681565b6000808888888888888860405161032d90610486565b61033d9796959493929190610c99565b604051809103906000f080158015610359573d6000803e3d6000fd5b5090506000819080600181540180825580915050600190039060005260206000200160009091909190916101000a81548173ffffffffffffffffffffffffffffffffffffffff021916908373ffffffffffffffffffffffffffffffffffffffff1602179055506001896040516103cf9190610b6b565b9081526020016040518091039020819080600181540180825580915050600190039060005260206000200160009091909190916101000a81548173ffffffffffffffffffffffffffffffffffffffff021916908373ffffffffffffffffffffffffffffffffffffffff1602179055507fc074e17d05c05519d026df403fb415e4c51dae16470d445d3a79c997c447663f818a60405161046f929190610d24565b60405180910390a180915050979650505050505050565b61189980610d5583390190565b600081519050919050565b600082825260208201905092915050565b6000819050602082019050919050565b600073ffffffffffffffffffffffffffffffffffffffff82169050919050565b60006104ea826104bf565b9050919050565b6104fa816104df565b82525050565b600061050c83836104f1565b60208301905092915050565b6000602082019050919050565b600061053082610493565b61053a818561049e565b9350610545836104af565b8060005b8381101561057657815161055d8882610500565b975061056883610518565b925050600181019050610549565b5085935050505092915050565b6000602082019050818103600083015261059d8184610525565b905092915050565b6000604051905090565b600080fd5b600080fd5b600080fd5b600080fd5b6000601f19601f8301169050919050565b7f4e487b7100000000000000000000000000000000000000000000000000000000600052604160045260246000fd5b61060c826105c3565b810181811067ffffffffffffffff8211171561062b5761062a6105d4565b5b80604052505050565b600061063e6105a5565b905061064a8282610603565b919050565b600067ffffffffffffffff82111561066a576106696105d4565b5b610673826105c3565b9050602081019050919050565b82818337600083830152505050565b60006106a261069d8461064f565b610634565b9050828152602081018484840111156106be576106bd6105be565b5b6106c9848285610680565b509392505050565b600082601f8301126106e6576106e56105b9565b5b81356106f684826020860161068f565b91505092915050565b600060208284031215610715576107146105af565b5b600082013567ffffffffffffffff811115610733576107326105b4565b5b61073f848285016106d1565b91505092915050565b6000819050919050565b61075b81610748565b811461076657600080fd5b50565b60008135905061077881610752565b92915050565b600060208284031215610794576107936105af565b5b60006107a284828501610769565b91505092915050565b6107b4816104df565b82525050565b60006020820190506107cf60008301846107ab565b92915050565b600080604083850312156107ec576107eb6105af565b5b600083013567ffffffffffffffff81111561080a576108096105b4565b5b610816858286016106d1565b925050602061082785828601610769565b9150509250929050565b600067ffffffffffffffff82111561084c5761084b6105d4565b5b602082029050602081019050919050565b600080fd5b61086b816104df565b811461087657600080fd5b50565b60008135905061088881610862565b92915050565b60006108a161089c84610831565b610634565b905080838252602082019050602084028301858111156108c4576108c361085d565b5b835b818110156108ed57806108d98882610879565b8452602084019350506020810190506108c6565b5050509392505050565b600082601f83011261090c5761090b6105b9565b5b813561091c84826020860161088e565b91505092915050565b600067ffffffffffffffff8211156109405761093f6105d4565b5b602082029050602081019050919050565b600061096461095f84610925565b610634565b905080838252602082019050602084028301858111156109875761098661085d565b5b835b818110156109b0578061099c8882610769565b845260208401935050602081019050610989565b5050509392505050565b600082601f8301126109cf576109ce6105b9565b5b81356109df848260208601610951565b91505092915050565b600080600080600080600060e0888a031215610a0757610a066105af565b5b600088013567ffffffffffffffff811115610a2557610a246105b4565b5b610a318a828b016106d1565b9750506020610a428a828b01610769565b9650506040610a538a828b01610769565b9550506060610a648a828b01610769565b945050608088013567ffffffffffffffff811115610a8557610a846105b4565b5b610a918a828b016106d1565b93505060a088013567ffffffffffffffff811115610ab257610ab16105b4565b5b610abe8a828b016108f7565b92505060c088013567ffffffffffffffff811115610adf57610ade6105b4565b5b610aeb8a828b016109ba565b91505092959891949750929550565b600081519050919050565b600081905092915050565b60005b83811015610b2e578082015181840152602081019050610b13565b60008484015250505050565b6000610b4582610afa565b610b4f8185610b05565b9350610b5f818560208601610b10565b80840191505092915050565b6000610b778284610b3a565b915081905092915050565b600082825260208201905092915050565b6000610b9e82610afa565b610ba88185610b82565b9350610bb8818560208601610b10565b610bc1816105c3565b840191505092915050565b610bd581610748565b82525050565b600081519050919050565b600082825260208201905092915050565b6000819050602082019050919050565b610c1081610748565b82525050565b6000610c228383610c07565b60208301905092915050565b6000602082019050919050565b6000610c4682610bdb565b610c508185610be6565b9350610c5b83610bf7565b8060005b83811015610c8c578151610c738882610c16565b9750610c7e83610c2e565b925050600181019050610c5f565b5085935050505092915050565b600060e0820190508181036000830152610cb3818a610b93565b9050610cc26020830189610bcc565b610ccf6040830188610bcc565b610cdc6060830187610bcc565b8181036080830152610cee8186610b93565b905081810360a0830152610d028185610525565b905081810360c0830152610d168184610c3b565b905098975050505050505050565b6000604082019050610d3960008301856107ab565b8181036020830152610d4b8184610b93565b9050939250505056fe608060405234801561001057600080fd5b5060405161189938038061189983398181016040528101906100329190610638565b8051825114610076576040517f08c379a000000000000000000000000000000000000000000000000000000000815260040161006d906107a7565b60405180910390fd5b600080600090505b82518110156100bc5782818151811061009a576100996107c7565b5b6020026020010151826100ad9190610825565b9150808060010191505061007e565b5060648114610100576040517f08c379a00000000000000000000000000000000000000000000000000000000081526004016100f7906108a5565b60405180910390fd5b336000806101000a81548173ffffffffffffffffffffffffffffffffffffffff021916908373ffffffffffffffffffffffffffffffffffffffff160217905550876001908161014f9190610adc565b5086600281905550856003819055508460048190555083600590816101749190610adc565b50826008908051906020019061018b9291906101b0565b5081600990805190602001906101a292919061023a565b505050505050505050610bae565b828054828255906000526020600020908101928215610229579160200282015b828111156102285782518260006101000a81548173ffffffffffffffffffffffffffffffffffffffff021916908373ffffffffffffffffffffffffffffffffffffffff160217905550916020019190600101906101d0565b5b5090506102369190610287565b5090565b828054828255906000526020600020908101928215610276579160200282015b8281111561027557825182559160200191906001019061025a565b5b5090506102839190610287565b5090565b5b808211156102a0576000816000905550600101610288565b5090565b6000604051905090565b600080fd5b600080fd5b600080fd5b600080fd5b6000601f19601f8301169050919050565b7f4e487b7100000000000000000000000000000000000000000000000000000000600052604160045260246000fd5b61030b826102c2565b810181811067ffffffffffffffff8211171561032a576103296102d3565b5b80604052505050565b600061033d6102a4565b90506103498282610302565b919050565b600067ffffffffffffffff821115610369576103686102d3565b5b610372826102c2565b9050602081019050919050565b60005b8381101561039d578082015181840152602081019050610382565b60008484015250505050565b60006103bc6103b78461034e565b610333565b9050828152602081018484840111156103d8576103d76102bd565b5b6103e384828561037f565b509392505050565b600082601f830112610400576103ff6102b8565b5b81516104108482602086016103a9565b91505092915050565b6000819050919050565b61042c81610419565b811461043757600080fd5b50565b60008151905061044981610423565b92915050565b600067ffffffffffffffff82111561046a576104696102d3565b5b602082029050602081019050919050565b600080fd5b600073ffffffffffffffffffffffffffffffffffffffff82169050919050565b60006104ab82610480565b9050919050565b6104bb816104a0565b81146104c657600080fd5b50565b6000815190506104d8816104b2565b92915050565b60006104f16104ec8461044f565b610333565b905080838252602082019050602084028301858111156105145761051361047b565b5b835b8181101561053d578061052988826104c9565b845260208401935050602081019050610516565b5050509392505050565b600082601f83011261055c5761055b6102b8565b5b815161056c8482602086016104de565b91505092915050565b600067ffffffffffffffff8211156105905761058f6102d3565b5b602082029050602081019050919050565b60006105b46105af84610575565b610333565b905080838252602082019050602084028301858111156105d7576105d661047b565b5b835b8181101561060057806105ec888261043a565b8452602084019350506020810190506105d9565b5050509392505050565b600082601f83011261061f5761061e6102b8565b5b815161062f8482602086016105a1565b91505092915050565b600080600080600080600060e0888a031215610657576106566102ae565b5b600088015167ffffffffffffffff811115610675576106746102b3565b5b6106818a828b016103eb565b97505060206106928a828b0161043a565b96505060406106a38a828b0161043a565b95505060606106b48a828b0161043a565b945050608088015167ffffffffffffffff8111156106d5576106d46102b3565b5b6106e18a828b016103eb565b93505060a088015167ffffffffffffffff811115610702576107016102b3565b5b61070e8a828b01610547565b92505060c088015167ffffffffffffffff81111561072f5761072e6102b3565b5b61073b8a828b0161060a565b91505092959891949750929550565b600082825260208201905092915050565b7f4d69736d61746368656420726174696f73000000000000000000000000000000600082015250565b600061079160118361074a565b915061079c8261075b565b602082019050919050565b600060208201905081810360008301526107c081610784565b9050919050565b7f4e487b7100000000000000000000000000000000000000000000000000000000600052603260045260246000fd5b7f4e487b7100000000000000000000000000000000000000000000000000000000600052601160045260246000fd5b600061083082610419565b915061083b83610419565b9250828201905080821115610853576108526107f6565b5b92915050565b7f526174696f73206d75737420746f74616c203130300000000000000000000000600082015250565b600061088f60158361074a565b915061089a82610859565b602082019050919050565b600060208201905081810360008301526108be81610882565b9050919050565b600081519050919050565b7f4e487b7100000000000000000000000000000000000000000000000000000000600052602260045260246000fd5b6000600282049050600182168061091757607f821691505b60208210810361092a576109296108d0565b5b50919050565b60008190508160005260206000209050919050565b60006020601f8301049050919050565b600082821b905092915050565b6000600883026109927fffffffffffffffffffffffffffffffffffffffffffffffffffffffffffffffff82610955565b61099c8683610955565b95508019841693508086168417925050509392505050565b6000819050919050565b60006109d96109d46109cf84610419565b6109b4565b610419565b9050919050565b6000819050919050565b6109f3836109be565b610a076109ff826109e0565b848454610962565b825550505050565b600090565b610a1c610a0f565b610a278184846109ea565b505050565b5b81811015610a4b57610a40600082610a14565b600181019050610a2d565b5050565b601f821115610a9057610a6181610930565b610a6a84610945565b81016020851015610a79578190505b610a8d610a8585610945565b830182610a2c565b50505b505050565b600082821c905092915050565b6000610ab360001984600802610a95565b1980831691505092915050565b6000610acc8383610aa2565b9150826002028217905092915050565b610ae5826108c5565b67ffffffffffffffff811115610afe57610afd6102d3565b5b610b0882546108ff565b610b13828285610a4f565b600060209050601f831160018114610b465760008415610b34578287015190505b610b3e8582610ac0565b865550610ba6565b601f198416610b5486610930565b60005b82811015610b7c57848901518255600182019150602085019450602081019050610b57565b86831015610b995784890151610b95601f891682610aa2565b8355505b6001600288020188555050505b505050505050565b610cdc80610bbd6000396000f3fe6080604052600436106100c65760003560e01c80638da5cb5b1161007f578063b60d428811610059578063b60d42881461025b578063ba414fa614610265578063d1bc76a114610290578063e1b5fef8146102cd576100d5565b80638da5cb5b146101da5780638f775839146102055780639f67756d14610230576100d5565b806303ee438c146100da57806311da60b4146101055780631937dfc81461011c5780632ca3836314610147578063771dc86a146101725780637dbb35e0146101af576100d5565b366100d5576100d36102f8565b005b600080fd5b3480156100e657600080fd5b506100ef61040f565b6040516100fc9190610888565b60405180910390f35b34801561011157600080fd5b5061011a61049d565b005b34801561012857600080fd5b506101316106a5565b60405161013e9190610888565b60405180910390f35b34801561015357600080fd5b5061015c610733565b60405161016991906108c3565b60405180910390f35b34801561017e57600080fd5b506101996004803603810190610194919061090f565b610739565b6040516101a691906108c3565b60405180910390f35b3480156101bb57600080fd5b506101c461075d565b6040516101d191906108c3565b60405180910390f35b3480156101e657600080fd5b506101ef610763565b6040516101fc919061097d565b60405180910390f35b34801561021157600080fd5b5061021a610787565b60405161022791906109b3565b60405180910390f35b34801561023c57600080fd5b5061024561079a565b60405161025291906108c3565b60405180910390f35b6102636102f8565b005b34801561027157600080fd5b5061027a6107a0565b60405161028791906109b3565b60405180910390f35b34801561029c57600080fd5b506102b760048036038101906102b2919061090f565b6107b3565b6040516102c4919061097d565b60405180910390f35b3480156102d957600080fd5b506102e26107f2565b6040516102ef91906108c3565b60405180910390f35b600760009054906101000a900460ff161580156103225750600760019054906101000a900460ff16155b610361576040517f08c379a000000000000000000000000000000000000000000000000000000000815260040161035890610a1a565b60405180910390fd5b6003543410156103a6576040517f08c379a000000000000000000000000000000000000000000000000000000000815260040161039d90610a86565b60405180910390fd5b34600660008282546103b89190610ad5565b925050819055503373ffffffffffffffffffffffffffffffffffffffff167f5af8184bef8e4b45eb9f6ed7734d04da38ced226495548f46e0c8ff8d7d9a5243460405161040591906108c3565b60405180910390a2565b6005805461041c90610b38565b80601f016020809104026020016040519081016040528092919081815260200182805461044890610b38565b80156104955780601f1061046a57610100808354040283529160200191610495565b820191906000526020600020905b81548152906001019060200180831161047857829003601f168201915b505050505081565b600760009054906101000a900460ff161580156104c75750600760019054906101000a900460ff16155b610506576040517f08c379a00000000000000000000000000000000000000000000000000000000081526004016104fd90610bb5565b60405180910390fd5b6004546006541061064e57600047905060005b6008805490508110156105f357600060646009838154811061053e5761053d610bd5565b5b9060005260206000200154846105549190610c04565b61055e9190610c75565b90506008828154811061057457610573610bd5565b5b9060005260206000200160009054906101000a900473ffffffffffffffffffffffffffffffffffffffff1673ffffffffffffffffffffffffffffffffffffffff166108fc829081150290604051600060405180830381858888f193505050501580156105e4573d6000803e3d6000fd5b50508080600101915050610519565b506001600760006101000a81548160ff0219169083151502179055507f25f07f291cafc33ddcad2dedb2665885a877fc8eaa73fc1031b3c46eb443cb0260065460405161064091906108c3565b60405180910390a1506106a3565b6001600760016101000a81548160ff0219169083151502179055507fe9981212ab524b2711193a45899a72ea24566f65d0953cd9f50c0d7943401c8260065460405161069a91906108c3565b60405180910390a15b565b600180546106b290610b38565b80601f01602080910402602001604051908101604052809291908181526020018280546106de90610b38565b801561072b5780601f106107005761010080835404028352916020019161072b565b820191906000526020600020905b81548152906001019060200180831161070e57829003601f168201915b505050505081565b60035481565b6009818154811061074957600080fd5b906000526020600020016000915090505481565b60045481565b60008054906101000a900473ffffffffffffffffffffffffffffffffffffffff1681565b600760009054906101000a900460ff1681565b60025481565b600760019054906101000a900460ff1681565b600881815481106107c357600080fd5b906000526020600020016000915054906101000a900473ffffffffffffffffffffffffffffffffffffffff1681565b60065481565b600081519050919050565b600082825260208201905092915050565b60005b83811015610832578082015181840152602081019050610817565b60008484015250505050565b6000601f19601f8301169050919050565b600061085a826107f8565b6108648185610803565b9350610874818560208601610814565b61087d8161083e565b840191505092915050565b600060208201905081810360008301526108a2818461084f565b905092915050565b6000819050919050565b6108bd816108aa565b82525050565b60006020820190506108d860008301846108b4565b92915050565b600080fd5b6108ec816108aa565b81146108f757600080fd5b50565b600081359050610909816108e3565b92915050565b600060208284031215610925576109246108de565b5b6000610933848285016108fa565b91505092915050565b600073ffffffffffffffffffffffffffffffffffffffff82169050919050565b60006109678261093c565b9050919050565b6109778161095c565b82525050565b6000602082019050610992600083018461096e565b92915050565b60008115159050919050565b6109ad81610998565b82525050565b60006020820190506109c860008301846109a4565b92915050565b7f46756e64696e6720636c6f736564000000000000000000000000000000000000600082015250565b6000610a04600e83610803565b9150610a0f826109ce565b602082019050919050565b60006020820190508181036000830152610a33816109f7565b9050919050565b7f496e73756666696369656e742045544800000000000000000000000000000000600082015250565b6000610a70601083610803565b9150610a7b82610a3a565b602082019050919050565b60006020820190508181036000830152610a9f81610a63565b9050919050565b7f4e487b7100000000000000000000000000000000000000000000000000000000600052601160045260246000fd5b6000610ae0826108aa565b9150610aeb836108aa565b9250828201905080821115610b0357610b02610aa6565b5b92915050565b7f4e487b7100000000000000000000000000000000000000000000000000000000600052602260045260246000fd5b60006002820490506001821680610b5057607f821691505b602082108103610b6357610b62610b09565b5b50919050565b7f416c72656164792070726f636573736564000000000000000000000000000000600082015250565b6000610b9f601183610803565b9150610baa82610b69565b602082019050919050565b60006020820190508181036000830152610bce81610b92565b9050919050565b7f4e487b7100000000000000000000000000000000000000000000000000000000600052603260045260246000fd5b6000610c0f826108aa565b9150610c1a836108aa565b9250828202610c28816108aa565b91508282048414831517610c3f57610c3e610aa6565b5b5092915050565b7f4e487b7100000000000000000000000000000000000000000000000000000000600052601260045260246000fd5b6000610c80826108aa565b9150610c8b836108aa565b925082610c9b57610c9a610c46565b5b82820490509291505056fea2646970667358221220913e8e248271b9df9e53ede836c0ac3fac834cf98fccbd789d84002e4d140c1764736f6c634300081c0033a2646970667358221220489c6b3d6fb961d5a7beae5f1911e8cb43a2ac72c7abaa39d1fc23cc89abf4d864736f6c634300081c0033",
  "linkReferences": {},
  "deployedLinkReferences": {}
}